{
  "contractName": "CoffeeShop",
  "abi": [
    {
      "anonymous": false,
      "inputs": [
        {
          "indexed": true,
          "internalType": "address",
          "name": "previousOwner",
          "type": "address"
        },
        {
          "indexed": true,
          "internalType": "address",
          "name": "newOwner",
          "type": "address"
        }
      ],
      "name": "OwnershipTransferred",
      "type": "event"
    },
    {
      "inputs": [],
      "name": "owner",
      "outputs": [
        {
          "internalType": "address",
          "name": "",
          "type": "address"
        }
      ],
      "stateMutability": "view",
      "type": "function",
      "constant": true
    },
    {
      "inputs": [],
      "name": "renounceOwnership",
      "outputs": [],
      "stateMutability": "nonpayable",
      "type": "function"
    },
    {
      "inputs": [],
      "name": "shopAddress",
      "outputs": [
        {
          "internalType": "address",
          "name": "",
          "type": "address"
        }
      ],
      "stateMutability": "view",
      "type": "function",
      "constant": true
    },
    {
      "inputs": [
        {
          "internalType": "address",
          "name": "newOwner",
          "type": "address"
        }
      ],
      "name": "transferOwnership",
      "outputs": [],
      "stateMutability": "nonpayable",
      "type": "function"
    },
    {
      "inputs": [
        {
          "internalType": "address",
          "name": "worker",
          "type": "address"
        }
      ],
      "name": "addWorker",
      "outputs": [],
      "stateMutability": "nonpayable",
      "type": "function"
    },
    {
      "inputs": [
        {
          "internalType": "address",
          "name": "worker",
          "type": "address"
        }
      ],
      "name": "removeWorker",
      "outputs": [],
      "stateMutability": "nonpayable",
      "type": "function"
    },
    {
      "inputs": [
        {
          "internalType": "address",
          "name": "worker",
          "type": "address"
        }
      ],
      "name": "isWorker",
      "outputs": [
        {
          "internalType": "bool",
          "name": "",
          "type": "bool"
        }
      ],
      "stateMutability": "view",
      "type": "function",
      "constant": true
    },
    {
      "inputs": [
        {
          "internalType": "address",
          "name": "_address",
          "type": "address"
        }
      ],
      "name": "setShopAddress",
      "outputs": [],
      "stateMutability": "nonpayable",
      "type": "function"
    },
    {
      "inputs": [],
      "name": "getAllOwners",
      "outputs": [
        {
          "internalType": "address[]",
          "name": "",
          "type": "address[]"
        }
      ],
      "stateMutability": "view",
      "type": "function",
      "constant": true
    }
  ],
  "bytecode": "0x608060405234801561001057600080fd5b5061002d61002261003260201b60201c565b61003a60201b60201c565b6100fe565b600033905090565b60008060009054906101000a900473ffffffffffffffffffffffffffffffffffffffff169050816000806101000a81548173ffffffffffffffffffffffffffffffffffffffff021916908373ffffffffffffffffffffffffffffffffffffffff1602179055508173ffffffffffffffffffffffffffffffffffffffff168173ffffffffffffffffffffffffffffffffffffffff167f8be0079c531659141344cd1fd0a4f28419497f9722a3daafe3b4186f6b6457e060405160405180910390a35050565b610fa78061010d6000396000f3fe608060405234801561001057600080fd5b50600436106100935760003560e01c8063806ad57e11610066578063806ad57e146100fa5780638da5cb5b14610116578063aa15664514610134578063c4f987a514610164578063f2fde38b1461018057610093565b806316c127461461009857806322446fb8146100b65780633ec963cb146100d4578063715018a6146100f0575b600080fd5b6100a061019c565b6040516100ad9190610c95565b60405180910390f35b6100be610229565b6040516100cb9190610c7a565b60405180910390f35b6100ee60048036038101906100e99190610aff565b61024f565b005b6100f861037f565b005b610114600480360381019061010f9190610aff565b610407565b005b61011e6104dd565b60405161012b9190610c7a565b60405180910390f35b61014e60048036038101906101499190610aff565b610506565b60405161015b9190610cb7565b60405180910390f35b61017e60048036038101906101799190610aff565b61052b565b005b61019a60048036038101906101959190610aff565b610600565b005b60606101a66106f8565b73ffffffffffffffffffffffffffffffffffffffff166101c46104dd565b73ffffffffffffffffffffffffffffffffffffffff161461021a576040517f08c379a000000000000000000000000000000000000000000000000000000000815260040161021190610d32565b60405180910390fd5b6102246002610700565b905090565b600160009054906101000a900473ffffffffffffffffffffffffffffffffffffffff1681565b6102576106f8565b73ffffffffffffffffffffffffffffffffffffffff166102756104dd565b73ffffffffffffffffffffffffffffffffffffffff16146102cb576040517f08c379a00000000000000000000000000000000000000000000000000000000081526004016102c290610d32565b60405180910390fd5b600073ffffffffffffffffffffffffffffffffffffffff168173ffffffffffffffffffffffffffffffffffffffff16141561033b576040517f08c379a000000000000000000000000000000000000000000000000000000000815260040161033290610d12565b60405180910390fd5b80600160006101000a81548173ffffffffffffffffffffffffffffffffffffffff021916908373ffffffffffffffffffffffffffffffffffffffff16021790555050565b6103876106f8565b73ffffffffffffffffffffffffffffffffffffffff166103a56104dd565b73ffffffffffffffffffffffffffffffffffffffff16146103fb576040517f08c379a00000000000000000000000000000000000000000000000000000000081526004016103f290610d32565b60405180910390fd5b6104056000610721565b565b61040f6106f8565b73ffffffffffffffffffffffffffffffffffffffff1661042d6104dd565b73ffffffffffffffffffffffffffffffffffffffff1614610483576040517f08c379a000000000000000000000000000000000000000000000000000000000815260040161047a90610d32565b60405180910390fd5b61048e6002826107e5565b156104ce576040517f08c379a00000000000000000000000000000000000000000000000000000000081526004016104c590610d52565b60405180910390fd5b6104d9600282610815565b5050565b60008060009054906101000a900473ffffffffffffffffffffffffffffffffffffffff16905090565b60006105136002836107e5565b156105215760019050610526565b600090505b919050565b6105336106f8565b73ffffffffffffffffffffffffffffffffffffffff166105516104dd565b73ffffffffffffffffffffffffffffffffffffffff16146105a7576040517f08c379a000000000000000000000000000000000000000000000000000000000815260040161059e90610d32565b60405180910390fd5b6105b26002826107e5565b6105f1576040517f08c379a00000000000000000000000000000000000000000000000000000000081526004016105e890610cd2565b60405180910390fd5b6105fc600282610845565b5050565b6106086106f8565b73ffffffffffffffffffffffffffffffffffffffff166106266104dd565b73ffffffffffffffffffffffffffffffffffffffff161461067c576040517f08c379a000000000000000000000000000000000000000000000000000000000815260040161067390610d32565b60405180910390fd5b600073ffffffffffffffffffffffffffffffffffffffff168173ffffffffffffffffffffffffffffffffffffffff1614156106ec576040517f08c379a00000000000000000000000000000000000000000000000000000000081526004016106e390610cf2565b60405180910390fd5b6106f581610721565b50565b600033905090565b6060600061071083600001610875565b905060608190508092505050919050565b60008060009054906101000a900473ffffffffffffffffffffffffffffffffffffffff169050816000806101000a81548173ffffffffffffffffffffffffffffffffffffffff021916908373ffffffffffffffffffffffffffffffffffffffff1602179055508173ffffffffffffffffffffffffffffffffffffffff168173ffffffffffffffffffffffffffffffffffffffff167f8be0079c531659141344cd1fd0a4f28419497f9722a3daafe3b4186f6b6457e060405160405180910390a35050565b600061080d836000018373ffffffffffffffffffffffffffffffffffffffff1660001b6108d1565b905092915050565b600061083d836000018373ffffffffffffffffffffffffffffffffffffffff1660001b6108f4565b905092915050565b600061086d836000018373ffffffffffffffffffffffffffffffffffffffff1660001b610964565b905092915050565b6060816000018054806020026020016040519081016040528092919081815260200182805480156108c557602002820191906000526020600020905b8154815260200190600101908083116108b1575b50505050509050919050565b600080836001016000848152602001908152602001600020541415905092915050565b600061090083836108d1565b61095957826000018290806001815401808255809150506001900390600052602060002001600090919091909150558260000180549050836001016000848152602001908152602001600020819055506001905061095e565b600090505b92915050565b60008083600101600084815260200190815260200160002054905060008114610ade5760006001826109969190610dbc565b90506000600186600001805490506109ae9190610dbc565b9050818114610a695760008660000182815481106109f5577f4e487b7100000000000000000000000000000000000000000000000000000000600052603260045260246000fd5b9060005260206000200154905080876000018481548110610a3f577f4e487b7100000000000000000000000000000000000000000000000000000000600052603260045260246000fd5b90600052602060002001819055508387600101600083815260200190815260200160002081905550505b85600001805480610aa3577f4e487b7100000000000000000000000000000000000000000000000000000000600052603160045260246000fd5b600190038181906000526020600020016000905590558560010160008681526020019081526020016000206000905560019350505050610ae4565b60009150505b92915050565b600081359050610af981610f5a565b92915050565b600060208284031215610b1157600080fd5b6000610b1f84828501610aea565b91505092915050565b6000610b348383610b40565b60208301905092915050565b610b4981610df0565b82525050565b610b5881610df0565b82525050565b6000610b6982610d82565b610b738185610d9a565b9350610b7e83610d72565b8060005b83811015610baf578151610b968882610b28565b9750610ba183610d8d565b925050600181019050610b82565b5085935050505092915050565b610bc581610e02565b82525050565b6000610bd8601483610dab565b9150610be382610e67565b602082019050919050565b6000610bfb602683610dab565b9150610c0682610e90565b604082019050919050565b6000610c1e600d83610dab565b9150610c2982610edf565b602082019050919050565b6000610c41602083610dab565b9150610c4c82610f08565b602082019050919050565b6000610c64601983610dab565b9150610c6f82610f31565b602082019050919050565b6000602082019050610c8f6000830184610b4f565b92915050565b60006020820190508181036000830152610caf8184610b5e565b905092915050565b6000602082019050610ccc6000830184610bbc565b92915050565b60006020820190508181036000830152610ceb81610bcb565b9050919050565b60006020820190508181036000830152610d0b81610bee565b9050919050565b60006020820190508181036000830152610d2b81610c11565b9050919050565b60006020820190508181036000830152610d4b81610c34565b9050919050565b60006020820190508181036000830152610d6b81610c57565b9050919050565b6000819050602082019050919050565b600081519050919050565b6000602082019050919050565b600082825260208201905092915050565b600082825260208201905092915050565b6000610dc782610e2e565b9150610dd283610e2e565b925082821015610de557610de4610e38565b5b828203905092915050565b6000610dfb82610e0e565b9050919050565b60008115159050919050565b600073ffffffffffffffffffffffffffffffffffffffff82169050919050565b6000819050919050565b7f4e487b7100000000000000000000000000000000000000000000000000000000600052601160045260246000fd5b7f54686572652069736e7420616e7920757365722e000000000000000000000000600082015250565b7f4f776e61626c653a206e6577206f776e657220697320746865207a65726f206160008201527f6464726573730000000000000000000000000000000000000000000000000000602082015250565b7f4164647265737320656d70747900000000000000000000000000000000000000600082015250565b7f4f776e61626c653a2063616c6c6572206973206e6f7420746865206f776e6572600082015250565b7f5573657220697320616c72656164792072657175657374656400000000000000600082015250565b610f6381610df0565b8114610f6e57600080fd5b5056fea264697066735822122055da52f07ee27a383a4ecf8b8af6caee55b02855c14d468f3c1a99961176a92864736f6c63430008020033",
  "immutableReferences": {},
  "source": "// SPDX-License-Identifier: MIT\npragma solidity 0.8.2;\n\nimport \"@openzeppelin/contracts/utils/structs/EnumerableSet.sol\";\nimport \"@openzeppelin/contracts/access/Ownable.sol\";\n\ncontract CoffeeShop is Ownable{\n\tusing EnumerableSet for EnumerableSet.AddressSet;\n    address public shopAddress;\t\n\n\tEnumerableSet.AddressSet private workers;\n\n\tfunction addWorker(address worker) public onlyOwner{\n        require(!EnumerableSet.contains(workers, worker),\"User is already requested\");\n\n\t\tEnumerableSet.add(workers,worker);\n\t}\n\n\tfunction removeWorker(address worker) public onlyOwner{\n\t\trequire(EnumerableSet.contains(workers, worker),\"There isnt any user.\");\n\n\t\tEnumerableSet.remove(workers,worker);\n\t}\n\n\tfunction isWorker(address worker) public view returns(bool) {\n\t\tif(EnumerableSet.contains(workers, worker)){\n\t\t\treturn true;\n\t\t}\n\n\t\treturn false;\n\t}\n\n    function setShopAddress(address _address) public onlyOwner{\n        require(_address != address(0),\"Address empty\");\n\n        shopAddress = _address;\n    }\n\n\n    function getAllOwners() public onlyOwner view returns(address[] memory){\n        return EnumerableSet.values(workers);\n    }\n\n}",
  "sourcePath": "/Users/mnkhod/Projects/ChainSolutions/coffeeShop/contracts/CoffeeShop.sol",
  "compiler": {
    "name": "solc",
    "version": "0.8.2+commit.661d1103.Emscripten.clang"
  },
  "schemaVersion": "3.4.3",
  "updatedAt": "2021-12-27T10:13:31.254Z",
  "networkType": "ethereum",
  "devdoc": {
    "kind": "dev",
    "methods": {
      "owner()": {
        "details": "Returns the address of the current owner."
      },
      "renounceOwnership()": {
        "details": "Leaves the contract without owner. It will not be possible to call `onlyOwner` functions anymore. Can only be called by the current owner. NOTE: Renouncing ownership will leave the contract without an owner, thereby removing any functionality that is only available to the owner."
      },
      "transferOwnership(address)": {
        "details": "Transfers ownership of the contract to a new account (`newOwner`). Can only be called by the current owner."
      }
    },
    "version": 1
  },
  "userdoc": {
    "kind": "user",
    "methods": {},
    "version": 1
  }
}